S01C00003370692D6C696E65666F6C6C6F7765722D7069642E7372656353
S11300000C9459000C9476000C9476000C947600B1
S11300100C9476000C9476000C9476000C94760084
S11300200C9476000C947C090C9476000C94760065
S11300300C9476000C9444060C9476000C94760090
S11300400C9476000C9476000C9476000C94760054
S11300500C9476000C9476000C9476000C94760044
S11300600C9476000C947600000000000000001F41
S11300701F1F1F1F1F1F4C31362063646567726585
S11300806734003E6733323E3E63333200666F6C42
S11300906C6F77657200504944204C696E6500337B
S11300A0F720526F626F740020506F6C6F6C750094
S11300B0560A11241FBECFEFD8E0DEBFCDBF11E03A
S11300C0A0E0B1E0E4EFF5E202C005900D92AA349D
S11300D0B107D9F721E0AAE4B1E001C01D92AE3B1B
S11300E0B207E1F70E949F010C94ED120C940000FA
S11300F060E088E690E00E94750761E089E690E0A0
S11301000E94750762E08AE690E00E94750763E04A
S11301108BE690E00E94750764E08CE690E00E9414
S1130120750765E08DE690E00E94750766E08EE64F
S113013090E00E9475070C94E807BF92CF92DF927B
S1130140EF92FF920F931F93CF93DF93CDB7DEB758
S11301502A970FB6F894DEBF0FBECDBF8C017C0189
S11301608AE0E80EF11C8AE0B82E95E6C92ED12C5F
S1130170E4E1F1E0DE0111968B2D01900D928A9558
S1130180E1F7F801819191918F01B6010E940C1160
S1130190E1E0F0E0EC0FFD1FE60FF71F80810E9405
S11301A078070E151F0521F72A960FB6F894DEBFBF
S11301B00FBECDBFDF91CF911F910F91FF90EF90B4
S11301C0DF90CF90BF9008950F931F93CF93DF9349
S11301D0CDB7DEB72A970FB6F894DEBF0FBECDBFFA
S11301E080ED97E00E94520A0E94780088EA90E02D
S11301F00E94080861E080E00E9480088FE990E096
S11302000E94080883E890E00E94B50688EE93E017
S11302100E94C4090E94E80786E990E00E94080849
S113022061E080E00E9480088DE890E00E94080868
S113023088EE93E00E94C40980E10E94790981114B
S11302401AC00E948A038C010E94E807B801110FAA
S1130250880B990B0E945D088BE391E00E94F707DD
S113026061E080E00E9480088EE391E00E94F7073D
S113027084E690E0DFCF80E10E94650988EE93E098
S11302800E94C4090CEE1FEF0832110528F068ED36
S11302907FEF88E290E004C068E270E088ED9FEFB1
S11302A00E94360981E00E94160A82E090E00E94D2
S11302B0C4090F5F1F4F0C33110531F760E070E084
S11302C080E090E00E94360980E10E947909811162
S11302D01AC061E0CE0101960E941C0A8C010E94A2
S11302E0E807B80180E090E00E945D0861E080E0EA
S11302F00E948008CE0101960E949D0084E690E051
S11303000E94C409E1CF80E10E9465090E94E807C8
S113031086E491E00E94F70786E790E00E94B50624
S11303200E94A4068111FCCF2A960FB6F894DEBF72
S11303300FBECDBFDF91CF911F910F910895CF9341
S1130340DF93CDB7DEB72A970FB6F894DEBF0FBEA2
S1130350CDBF0E94E400C12CD12C7601A12CB12C7C
S113036048E2742E88248A94912C8091B101909152
S1130370B201A091B301B091B4011C012D012FEF82
S1130380221A320A420A520A0E94FC092616370629
S11303904806590650F70E94FC096093B101709316
S11303A0B2018093B3019093B40161E0CE01019650
S11303B00E941C0A8C01005D1740C8018A199B0920
S11303C05C01B801012E000C880B990BC60ED71ED8
S11303D0E81EF91E2FEFC216D104E104F10409F05E
S11303E074F421E0C2162FEFD206E206F2065CF4A2
S11303F0CC24C394DD24DA94ED2CFD2C04C0C12C50
S1130400D12C7601CA940E94071020E030E040E02D
S11304105EE30E9493101B012C01C701B6010E94E8
S113042007102DEC3CEC4CE450E40E9493109B012B
S1130430AC01C201B1010E94630F1B012C017A9C23
S1130440B0017B9C700D1124072E000C880B990BB6
S11304500E9407109B01AC01C201B1010E94630F0D
S11304600E94CF0FCB016F3F710509F074F4613026
S11304702FEF72071CF077FD03C009C081E09FEFE6
S11304806FEF70E081509F4F07C08FEF90E0B40191
S1130490681B790B8FEF90E00E94360989819A815D
S11304A0883C9105C0F48B819C81883C910508F0BF
S11304B05CC08D819E81883C910508F056C08F8177
S11304C09885883C910508F050C089859A85883CB8
S11304D09105D0F04AC0853F914008F446C08B8115
S11304E09C81853F914008F440C08D819E81853F69
S11304F09140D8F18F819885853F9140B0F18985ED
S11305009A85853F914088F18091B5018130F9F455
S11305108091B6019091B701A091B801B091B90151
S11305201C012D0126E9220E311C411C511C0E9484
S1130530FC09261637064806590610F0580115CF4F
S113054060E070E080E090E00E94360911C081E034
S11305508093B5010E94FC096093B6017093B701C2
S11305608093B8019093B901E9CF1092B501E6CF19
S1130570FFCFECE7F0E080818F7D808308958111C7
S113058003C00E94B902089580917C008062809328
S11305907C00089580917C0085FB882780F908956C
S11305A00E94CA02882321F08091790090E0089586
S11305B0809178009091790008958032A0F497E8B2
S11305C090937A0090917C00662311F0906C02C0A5
S11305D09F779064907E982B90937C0080917A0012
S11305E0806480937A000895A0E0B0E0EAEFF2E03E
S11305F00C948D11EB0160E00E94DD0280917A0081
S113060086FDFCCF8E01C12CD12C760180917A001D
S1130610806480937A0080917A0086FDFCCF0E94EA
S1130620D002C80ED91EE11CF11C0150110901159C
S1130630110561F7CE0196958795C034D10538F43C
S11306408C0D9D1DBE010E940C11CB010EC0A70193
S11306509601280F391F411D511DCA01B9019E0180
S113066040E050E00E942011C901CDB7DEB7E8E0B8
S11306700C94A911CF92DF92EF92FF92A091000106
S1130680B09101019C010E9461116B017C010E94E7
S1130690CA02882359F0C701B60161587F4F8F4FB2
S11306A09F4F2FEF30E040E050E00AC0C701B60191
S11306B061507E4F8F4F9F4F2FEF33E040E050E06B
S11306C00E942011C901FF90EF90DF90CF90089510
S11306D00E94F4020E943A0308951F93CF93DF937C
S11306E00E94CA02182F0E94B9026AE070E086E0F4
S11306F00E946803EC01812F0E94BF02CE01880F83
S1130700991F8C0F9D1F019696958795DF91CF9128
S11307101F9108950E946D03089590914F01E091F7
S11307204A01F0914B01992311F0849101C0808119
S11307302FEB280F2A3110F4805E0895803249F49B
S11307409F012F5F3F4F30934B0120934A01EF2BC2
S113075031F708951F93CF93DF930E948D03C0E078
S1130760D0E01AE090ED980F9A30B8F49E01129FF1
S1130770E001139FD00D1124C80FD11D87FDDA9518
S1130780E09780914A0190914B01019690934B011F
S113079080934A010E948D03E5CFCE01DF91CF9172
S11307A01F91089510926F0083E28093800081E18D
S11307B0809381001092820080E197E290938900F7
S11307C08093880010928B0010928A00229A789469
S11307D008958F929F92AF92BF92DF92EF92FF9211
S11307E00F931F93CF93DF935C018B01D42E8091E1
S11307F04C01811105C081E080934C010E94D20319
S113080010920B01B7FE05C0E894B7F82AE0F22E67
S113081002C0FF24F394E09081002E2D287FE22E65
S113082048ECF49EC00111248A159B05E0F4E5010F
S113083051E1A51657E2B50610F0C0E1D7E2BE01BA
S11308407695679580E090E06058794687469F4F9B
S11308504E01A12CB12CA50194010E942011590133
S11308608E2D816024C0C8E2FC9EC02D1124D0E0EE
S1130870CA15DB0508F4E501BE01769567959E016E
S113088040E050E08AE0F81207C080E090E0605E4B
S1130890734481449F4F06C080E090E060537D4ED6
S11308A08C4E9F4F0E94201159018E2D8260882EFC
S11308B02AE0F21207C0CE0105966AE070E00E94B9
S11308C00C11EB01C83E43E0D40759F09801DE0156
S11308D00E94611128EE33E040E050E00E94421192
S11308E0890110926F0080928100B0928900A092D9
S11308F0880020918800309189004D2D403108F006
S11309004FE080E190E0841B9109A90102C0569553
S113091047958A95E2F750938B0040938A00109391
S113092052010093510186B38FEF86BB81E080931F
S11309306F00DF91CF911F910F91FF90EF90DF90A7
S1130940BF90AF909F908F900895CF93DF93EB016A
S11309508F3F11F0411105C040E0BE0188EE93E0E5
S113096043C0813130F050EF580F503618F05FE536
S113097001C050E0852F6CE00E940011682F74EFD5
S1130980760390011124250F311D2C30310540F4DC
S1130990F901EE0FFF1FE25EFE4F2081318102C09C
S11309A020E030E0873081F0082E02C0220F331F90
S11309B00A94E2F7823028F0C90105966AE070E0F3
S11309C00CC0C90190580CC0C90136E0880F991FAA
S11309D03A95E1F7029665E070E00E940C11CB01B4
S11309E0403108F04FE0BE010E94E903DF91CF914E
S11309F00895A2E0B0E0EFEFF4E00C94851190903C
S1130A000A0180914E01882321F060914D0161110A
S1130A1017C077247394B0ECAB2EBDE5BB2E1AE05F
S1130A20612E04E0802E80EDC82E87E0D82E94E05D
S1130A30E92EF12C04EF11E02FE0422E512C15C0C9
S1130A4070E040E088EE93E00E94E90310924D01CB
S1130A5017C18636D4F5813609F4A9C07CF58C33E8
S1130A6009F460C08E3381F493940E948D03209125
S1130A704A0130914B012F5F3F4F30934B0120933C
S1130A804A01853631F752C0813209F08BC0809219
S1130A900A01D0920901C0920801F0920701E09284
S1130AA00601109305010093040150920301409242
S1130AB0020110924E01A4E09A2ED7CF8336A1F101
S1130AC00CF478C010E082E077C08D36C1F194F464
S1130AD0873691F174F18C3609F064C00E94AA0340
S1130AE0BC019093070180930601809108019091C5
S1130AF0090151C08237C9F14CF48F3609F052C054
S1130B000E94AA03982E80930A01AFCF843781F103
S1130B10863709F047C00E94AA039093030180938B
S1130B200201A3CF9A94A1CF10E020C010E084E08A
S1130B3043C010E085E040C010E087E03DC00E9463
S1130B408D038C3619F410924E0104C070924E013C
S1130B5010924D0120914A0130914B012F5F3F4F7C
S1130B6030934B0120934A0180CF11E080E024C0F0
S1130B700E94AA03BC01C5010E940C11669EC0011B
S1130B80679E900D11249093090180930801609150
S1130B900601709107010E940C1170930501609386
S1130BA0040163CF10924B0110924A0169C010E016
S1130BB089E002C010E08BE0082F9CE0999E000DB4
S1130BC011240E948D03982F977F933261F4209112
S1130BD04A0130914B012F5F3F4F30934B012093DB
S1130BE04A010F5FEECF8D3271F420914A013091AA
S1130BF04B012F5F3F4F30934B0120934A0101502B
S1130C000E948D03F0CF609104017091050181531E
S1130C10883050F4E0900801F09009010E94AA0382
S1130C20BC01C7010E940C117B01F694E79469830F
S1130C307A830E948D0369817A818E3269F42091CE
S1130C404A0130914B012F5F3F4F30934B0120936A
S1130C504A016E0D7F1DE9CF80914E01882339F042
S1130C609B013695279520934D01621B7109409194
S1130C700201112311F08FEF01C0802F0E94A504FF
S1130C802296E0E10C94A1111F920F920FB60F92DD
S1130C9011242F933F934F935F936F937F938F937D
S1130CA09F93AF93BF93EF93FF93809151019091E2
S1130CB052019C012150310930935201209351017A
S1130CC0892B11F510926F00789480918100887FB0
S1130CD081608093810080E197E290938900809302
S1130CE0880010928B0010928A0081E080930B019F
S1130CF080914A0190914B01892B31F080915001F0
S1130D00811102C00E94F904FF91EF91BF91AF914C
S1130D109F918F917F916F915F914F913F912F910F
S1130D200F900FBE0F901F90189580910B01882390
S1130D3049F081E020914A0130914B01232B19F4B1
S1130D4080E0089581E008950E9495060895109228
S1130D506F0090934B0180934A0181E080934F018F
S1130D6010924D010E94F90408950E94A706089567
S1130D7081E090E06F9364E06A95F1F76F910197D9
S1130D80C9F708950F931F93CF93DF931AB1579820
S1130D905A98289AC0E0D0E00E94B8065C9A0E9453
S1130DA0B80609B15C980E94B8065C9A0E94B8061D
S1130DB05C98249607FF10C0AE0160E070E080915B
S1130DC0530190915401A0915501B09156014817D7
S1130DD059076A077B0700F31AB9DF91CF911F9176
S1130DE00F91089595B1282F217030E0220F331F01
S1130DF0482F467068E0469FA0011124242B9D7C57
S1130E00292B25B99BB188708295807F9F77892B88
S1130E108BB95C9A0E94B8065C980E94B806089543
S1130E20A0E0B0E0E6E1F7E00C948E11C82FD62ED6
S1130E30E42E8091AD01811105C081E08093AD0164
S1130E400E9480070E94C20614B1D5B1FAB00BB15A
S1130E502898DD2011F05A9A01C05A9894B19263EF
S1130E6094B9579A81E0E81629F08C2F82958F70F7
S1130E700E94F2068C2F8F700E94F206FAB80BB90A
S1130E8014B9D5B9CDB7DEB7E7E00C94AA1142E0A6
S1130E9060E00E941007089542E061E00E9410079C
S1130EA00895A1E0B0E0E7E5F7E00C948F118C0120
S1130EB0660F660F660FE12CF12C8E2D860F806471
S1130EC069830E944707F801EE0DFF1D84910E947B
S1130ED04C078FEFE81AF80A6981E8E0EE16F1048E
S1130EE061F72196E6E00C94AB110E945107089536
S1130EF00E944C07089541E060E00E9410070895A5
S1130F0080E197E2A0E0B0E0809353019093540114
S1130F10A0935501B0935601529A209A549A8EE1A7
S1130F2090E00E94C40983E00E947B0786E090E081
S1130F300E94C40983E00E947B0782E090E00E9443
S1130F40C40983E00E947B0782E090E00E94C40908
S1130F5082E00E947B0782E090E00E94C40988E25C
S1130F600E94470788E00E94470781E00E944707E4
S1130F7086E00E9447078CE00E944707089581E0BD
S1130F800E9447078091590190915A01892BF9F0E9
S1130F9060E0A0E2262F30E070910C0180910D01F9
S1130FA090E00197789FA001799F500D1124241798
S1130FB035074CF4E0915901F0915A01E20FF31F07
S1130FC0A0836F5FE7CF10925701109258010895E4
S1130FD00E94BF070895CF93DF93EC018991882382
S1130FE019F00E944C07FACFDF91CF9108950E9427
S1130FF0EB070895CF93DF93EC01FE0184918823DE
S113100021F00E944C072196F8CFDF91CF910895EB
S11310100E94FA070895AAE0B0E0E1E1F8E00C9438
S11310208D111AE05AE0C52ED12CE12CF12C062F9B
S1131030A70196010E942011CA01B9011150E1E0F3
S1131040F0E0EC0FFD1FE10FF11D005D2AE0629F4F
S1131050001911240083611571058105910539F783
S11310601A3058F4E1E0F0E0EC0FFD1FE10FF11D40
S113107080810E944C071F5FF3CF2A96E8E00C940E
S1131080A911CF92DF92EF92FF926B017C0197FF3F
S11310900BC0F094E094D094C094C11CD11CE11C0A
S11310A0F11C8DE20E944C07C701B6010E940B0897
S11310B0FF90EF90DF90CF9008950E94410808952B
S11310C0A5E0B0E0E6E6F8E00C949211182F80E871
S11310D0898380EC8A8384E98B8384ED8C83FE018D
S11310E0E60FF11D8181810F6D830E9447071093E4
S11310F057016D81609358012596E3E00C94AE117D
S11311000E9460080895883058F491E001C0990F56
S11311108A95EAF7892FAAE2B0E0EBE2F0E021C079
S11311208E3060F498EF980F81E001C0880F9A9593
S1131130EAF7A4E2B0E0E5E2F0E013C0853160F440
S113114092EF980F81E001C0880F9A95EAF7A7E221
S1131150B0E0E8E2F0E005C080E0A0E0B0E0E0E06C
S1131160F0E06F3F19F49081982709C0662319F0C5
S11311709081982B04C02081982F9095922390837E
S11311809C91982B9C93089583EF8093B00084BD29
S113119082E08093B10085BD1092B4001092B30038
S11311A018BC17BC60E086E00E94830860E085E01C
S11311B00E94830860E08BE00E94830860E083E083
S11311C00E94830808958091AE01811105C081E0D9
S11311D08093AE010E94C4080895CF93DF93EC017D
S11311E00E94E308D7FF05C0D195C195D10981E0DC
S11311F001C080E0CF3FD10519F014F0CFEFD0E06B
S1131200882319F018BCC7BD02C0C8BD17BCDF9144
S1131210CF910895CF93DF93EC010E94E308D7FFA9
S113122005C0D195C195D10981E001C080E0CF3FCF
S1131230D10519F014F0CFEFD0E0882329F01092F3
S1131240B400C093B30004C0C093B4001092B300C0
S1131250DF91CF910895CF93DF93EB010E94ED08C6
S1131260CE010E940A09DF91CF9108950E942B09B3
S1131270089584B18D7C84B985B1826385B985E094
S113128090E06F9364E06A95F1F76F910197C9F765
S113129008958091AF01811105C081E08093AF0171
S11312A00E9439090895CF93C82F0E94490983B138
S11312B08C23E9F38AE090E00E94C40983B18C2373
S11312C0B1F383B18C23CF9108950E9453090895FB
S11312D0A1E0B0E0EEE6F9E00C94931189830E945A
S11312E0490993B19095898189232196E2E00C9470
S11312F0AF110E94680908952F928F939F932FB680
S113130080916201909163010196809362019093B0
S1131310630190E080916401891F8093640190913E
S11313205C019C5F90935C0180915B0180519742CA
S1131330C0F090935C0180935B0180915D0190917A
S11313405E01019680935D0190935E0190E080912F
S11313505F01891F80935F0180916001891F8093E1
S113136060012FBE9F918F912F90189528EE33E046
S1131370019748F0F9016F9364E06A95F1F76F9172
S11313803197C9F7F5CF08950E94B6090895E0E7AB
S1131390F0E080818E7F8083A0EBB0E08C9183604D
S11313A08C93A1EBB0E08C91807F8C938C918260C4
S11313B08C93B89A80818160808378940895809119
S11313C0B001811105C081E08093B0010E94C7097A
S11313D008950E94DF09E0E7F0E080818E7F80833A
S11313E060915D0170915E0180915F019091600157
S11313F020812160208308950E94E90908950E94B4
S1131400DF09E0E7F0E080818E7F808310925D0148
S113141010925E0110925F011092600110925C01C3
S113142010925B018081816080830895682F85E636
S113143091E00E94FE0D0895462F20E0BC0185E650
S113144091E00E94CF0E08950F93CF93DF9300D0C5
S113145000D01F92CDB7DEB79C0185E0E6E3F1E052
S1131460DE01119601900D928A95E1F7662311F041
S11314700FEF01C003E145E0BE016F5F7F4F85E6DA
S113148091E00E94F60A85E691E00E94CD0A0E944E
S1131490FF090F900F900F900F900F90DF91CF9155
S11314A00F91089560E00E94240A089585E691E072
S11314B00E94440F08956F9364E06A95F1F76F9169
S11314C00197C9F70895FC011182108213821282D8
S11314D0158214821682683068F489E290E0918360
S11314E080838BE290E0938382838AE290E0958309
S11314F084831FC06E3070F483E290E09183808314
S113150085E290E09383828384E290E095838483F0
S113151068500FC0653198F486E290E0918380832F
S113152088E290E09383828387E290E095838483CA
S11315306E5081E001C0880F6A95EAF786830895AA
S1131540A7E0B0E0E6EAFAE00C9491118C01FC010A
S113155011821082138212821582148217821682DB
S1131560613118F080E1808702C0FC016087F801D6
S1131570208B642FCE0101960E94630A8F81F801AB
S113158081878B819C81938782878D819E819587BA
S113159084872796E4E00C94AD11FC01A485B585FD
S11315A0109779F08C919185892B8C93A285B385C2
S11315B09C918185809589238C9388EC90E00E948E
S11315C05B0A0895FC01A485B585109771F08C9190
S11315D09185892B8C93A285B3858C919185892BD8
S11315E08C9388EC90E00E945B0A0895A7E0B0E039
S11315F0ECEFFAE00C9486117C014B01642F390165
S1131600402F20E00E94A00A87010F5B1F4FF801C2
S113161010826701F2E4CF0ED11CF601108257014B
S1131620F3E4AF0EB11CF5011082F70177866686EC
S1131630512CF7018085581650F5652C712CF40156
S1131640E60DF71D6081CE0101960E94630A2F8189
S1131650F701E60DF71D218B89819A81F301EE0FC5
S1131660FF1FEE0DFF1D92A381A38332910511F498
S1131670F80108C08632910511F4F60103C0899778
S113168021F4F5018081822B80835394D2CF279655
S1131690EFE00C94A211A0E0B0E0E1E5FBE00C94D3
S11316A08811EC015B016C0181E4C80ED11CF601C8
S11316B080807E01F2E4EF0EF11CF70170808E0150
S11316C00D5B1F4FF801908080E09885891748F4DE
S11316D0F501E80FF11DE80FF11D118210828F5FF3
S11316E0F4CF84B1F6019081892B84B987B1F701D5
S11316F09081892B87B98AB1F8019081892B8AB9A5
S113170085B1F6019081892B85B988B1F701908163
S1131710892B88B98BB1F8019081892B8BB98AE028
S113172090E00E945B0A94B1F60180818095892340
S113173084B997B1F70180818095892387B99AB1DB
S1131740F8018081809589238AB995B1F601808159
S11317508095892385B998B1F70180818095892383
S113176088B99BB1F8018081809589238BB9E09079
S1131770B000D090B1008091B00083608093B0003D
S113178082E08093B1004091B20080E090E02E8529
S11317903F858217930720F5C090B2002C2D241B9F
S11317A0820F911D03B1081132C0F6B0F7102FC09B
S11317B029B129112CC010C0212F30E0A901440FF8
S11317C0551FF501E40FF51F60817181672B21F12D
S11317D01F5F2885121780F37F2C802E4C2DD7CFC6
S11317E0E092B000D092B10020E08885281730F54F
S11317F0F501E20FF11DE20FF11D80819181892B2A
S113180021F48E859F85918380832F5FEECF03B172
S1131810F6B099B010E0DDCFDE01A40FB51F9196AC
S11318200D90BC91A02D4C91DE01A20FB31F5196D7
S11318302C91422369F691838083CACFCDB7DEB75A
S1131840EDE00C94A411EF92FF920F931F93CF93AA
S1131850DF93FC019B01F0907C0000917A0047B17A
S113186018B180917A0086FDFCCF80E090858917BD
S113187048F4D901A80FB11DA80FB11D1D921C92E7
S11318808F5FF4CF97B182A18095892387B998B1EE
S113189082A18095892388B987E880937A00E12C16
S11318A081A1E81610F0E12C29C050E0808558177A
S11318B018F5A52FB0E0EF01CA0FDB1F89898064FA
S11318C080937C0080917A00806480937A00809178
S11318D07A0086FDFCCF6091780070917900AA0FA0
S11318E0BB1FA20FB31F8D919C911197860F971F59
S11318F08D939C935F5FDACFE394D2CF8085E81613
S1131900A0F4E901CE0DD11DCE0DD11D61A170E071
S1131910CB0195958795A881B9818A0F9B1F0E9459
S11319200C1179836883E394E9CFF0927C000093EF
S11319307A0018B947B9CDB7DEB7E6E00C94AB111D
S1131940A0E2B0E0E6EAFCE00C948E118C017B018D
S1131950D42E8FEF840F823018F4C8010E94E20A5B
S1131960D80150968C91B701811110C0C8010E9412
S11319704B0BC8010E94CD0AB2E0DB123AC0BE0193
S11319806F5F7F4FC8010E944B0B0FC0C8010E94BC
S1131990230CC8010E94CD0AE2E0DE122AC0BE0177
S11319A06F5F7F4FC8010E94230C40E0F8018085DF
S11319B04817F8F4842F90E0880F991FF701E80F77
S11319C0F91F21E030E02C0F3D1F820F931FD80137
S11319D01E962D913C911F97DC018D919C91281BA3
S11319E0390B80819181820F931F918380834F5F94
S11319F0DDCFA096E7E00C94AA112F923F925F925C
S1131A006F927F928F929F92AF92BF92CF92DF920A
S1131A10EF92FF920F931F93CF93DF93CDB7DEB76F
S1131A20C056D1090FB6F894DEBF0FBECDBF8C01EE
S1131A304B015A01522EDA018D919C91892B31F080
S1131A40F40180819181892BF1F424C0D801189686
S1131A508C9190E0880F991F0E94C011F501918329
S1131A608083009709F4B1C0FC0120E030E0D80184
S1131A7018968C9190E02817390714F71192119257
S1131A802F5F3F4FF4CFE12CF12C6E01B1E2CB0E6E
S1131A90D11C21C0F801808590E0880F991F0E9415
S1131AA0C011D4018D939C93009709F48EC0FC015E
S1131AB020E030E0D80118968C9190E0281739077F
S1131AC014F7D8011E968D919C911F978193919341
S1131AD02F5F3F4FEFCF452DBE016F5B7F4FC80196
S1131AE00E94A00CF8016084712CFE01EF5BFF4F93
S1131AF0C6019E012F5F3F4F190120E030E02615FB
S1131B0037054CF5E114F10489F0DC016D917C9109
S1131B10408151816417750748F0D1016D917C9122
S1131B20408151814617570748F00DC040815181CB
S1131B30DC014D935C93E114F10479F74081518108
S1131B40D1014D935C932F5F3F4FB2E02B0E311CBC
S1131B5032960296D4CFEFEFEE1AFE0AFAE0EF16B1
S1131B60F10409F0B8CF9E012F5F3F4F7901360190
S1131B7080E090E0F801208530E0821793072CF58F
S1131B80D7012D913D917D01B3016C197D09D501DA
S1131B90ED91FC91E60FF71F4081518142175307E5
S1131BA010F431832083F301219131913F01D40159
S1131BB0ED91FC91E60FF71F408151812417350701
S1131BC010F4318320830196D5CFC05ADF4F0FB66E
S1131BD0F894DEBF0FBECDBFDF91CF911F910F915F
S1131BE0FF90EF90DF90CF90BF90AF909F908F9039
S1131BF07F906F905F903F902F9008951F93CF93A5
S1131C00DF93EC01162F8FEF860F823018F06623D6
S1131C1059F014C021E0AE014E5F5F4FBE01CE010A
S1131C200E94FD0C123051F4AE014A5F5F4FBE01B9
S1131C306C5F7F4F20E0CE010E94FD0CDF91CF91BD
S1131C401F910895A0E0B0E0E8E2FEE00C948C114E
S1131C50EC018B01B42E842F8D7F51F48C819D81F6
S1131C60892B09F497C08E819F81892B09F492C036
S1131C708FEF8B0D823050F488819981892B09F480
S1131C8089C08A819B81892B09F484C04B2DB801BA
S1131C90CE010E94A00C780100E010E0C12CD12CF0
S1131CA0888590E0C816D9060CF074C081E0B8129B
S1131CB00AC0EA81FB81E00FF11F0190F081E02D61
S1131CC0A881B9810DC08C819D812E813F81B11085
S1131CD00CC0F901E00FF11F0190F081E02DDC014F
S1131CE0A00FB11F8D919C9128C0FC01E00FF11F42
S1131CF040815181E881F981E00FF11F8081918158
S1131D00EE85FF854817590710F4CF0104C08E0FE4
S1131D109F1F841B950BD901A00FB11F2D913C91DE
S1131D20AA81BB81A00FB11F4D915C912417350787
S1131D3020F0E40FF51FE21BF30BE81BF90BA9F0ED
S1131D40D7012D913C9140E050E0281B390B41090B
S1131D505109A8EEB3E00E9470119F0140E050E0E9
S1131D600E94421137FD0AC002C020E030E0293E43
S1131D70B3E03B072CF028EE33E002C020E030E073
S1131D80F701219331937F01FFEFCF1ADF0A0E5F32
S1131D901F4F86CFCDB7DEB7E9E00C94A811A0E0C1
S1131DA0B0E0E5EDFEE00C948311EC018B01822E92
S1131DB00E94220E2884E801412C512C320100E0BB
S1131DC010E0C12CD12C7601312C912C58EEA52E8B
S1131DD053E0B52E921421F1E991F991882021F074
S1131DE0C5018E1B9F0BFC01E93CF10524F4E33390
S1131DF0F10574F002C033243394DF01A30192018E
S1131E000E947B11C60ED71EE81EF91E0E0F1F1F5F
S1131E10939498EE490E93E0591E611C711CDACF1D
S1131E2031101EC0492D50E04150510924EF31E0DA
S1131E30429FC001439F900D529F900D1124209109
S1131E40A9013091AA0128173907B4F088EE93E06C
S1131E50489F9001499F300D589F300D11240EC0AA
S1131E60980140E050E0C701B6010E942011309370
S1131E70AA012093A90102C020E030E0C901CDB736
S1131E80DEB7E2E10C949F11CF93DF93EC018A81DA
S1131E909B81009711F00E9455128E819F810097BB
S1131EA011F00E94551288819981009711F00E94C7
S1131EB055128C819D81009711F00E945512DF917B
S1131EC0CF9108955058BB27AA270E947A0F0C94EB
S1131ED059100E944B1038F00E94521020F039F42F
S1131EE09F3F19F426F40C9448100EF4E095E7FB98
S1131EF00C944210E92F0E946A1058F3BA17620733
S1131F0073078407950720F079F4A6F50C948C10D8
S1131F100EF4E0950B2EBA2FA02D0B01B901900100
S1131F200C01CA01A0011124FF27591B99F0593F44
S1131F3050F4503E68F11A16F040A22F232F342F8C
S1131F404427585FF3CF469537952795A795F040DA
S1131F505395C9F77EF41F16BA0B620B730B840BEF
S1131F60BAF09150A1F0FF0FBB1F661F771F881FA7
S1131F70C2F70EC0BA0F621F731F841F48F48795FF
S1131F8077956795B795F7959E3F08F0B0CF9395F1
S1131F90880F08F09927EE0F9795879508950E946A
S1131FA0D60F6894B1110C948D1008950E9472108C
S1131FB088F09F5798F0B92F9927B751B0F0E1F006
S1131FC0660F771F881F991F1AF0BA95C9F714C0B6
S1131FD0B13091F00E948C10B1E008950C948C10F3
S1131FE0672F782F8827B85F39F0B93FCCF38695EF
S1131FF077956795B395D9F73EF49095809570954C
S113200061957F4F8F4F9F4F0895E89409C097FBC8
S11320103EF490958095709561957F4F8F4F9F4FBB
S11320209923A9F0F92F96E9BB279395F6958795FF
S113203077956795B795F111F8CFFAF4BB0F11F4C2
S113204060FF1BC06F5F7F4F8F4F9F4F16C0882369
S113205011F096E911C0772321F09EE8872F762F9F
S113206005C0662371F096E8862F70E060E02AF0E0
S11320709A95660F771F881FDAF7880F96958795CC
S113208097F9089597F99F6780E870E060E00895F4
S11320909FEF80EC089500240A941616170618067C
S11320A00906089500240A94121613061406050658
S11320B00895092E0394000C11F4882352F0BB0FE9
S11320C040F4BF2B11F460FF04C06F5F7F4F8F4F4C
S11320D09F4F089557FD9058440F551F59F05F3F87
S11320E071F04795880F97FB991F61F09F3F79F036
S11320F087950895121613061406551FF2CF4695B8
S1132100F1DF08C0161617061806991FF1CF869539
S11321107105610508940895E894BB27662777271D
S1132120CB0197F908950E94A6100C9459100E94AF
S11321304B1038F00E94521020F0952311F00C94AB
S113214042100C94481011240C948D100E946A10B3
S113215070F3959FC1F3950F50E0551F629FF001F6
S1132160729FBB27F00DB11D639FAA27F00DB11D0F
S1132170AA1F649F6627B00DA11D661F829F222798
S1132180B00DA11D621F739FB00DA11D621F839F1F
S1132190A00D611D221F749F3327A00D611D231FF5
S11321A0849F600D211D822F762F6A2F11249F5743
S11321B050409AF0F1F088234AF0EE0FFF1FBB1F46
S11321C0661F771F881F91505040A9F79E3F510505
S11321D080F00C9442100C948D105F3FE4F3983E11
S11321E0D4F3869577956795B795F795E7959F5FAF
S11321F0C1F7FE2B880F911D9695879597F9089541
S1132200991B79E004C0991F961708F0961B881F44
S11322107A95C9F780950895AA1BBB1B51E107C0A5
S1132220AA1FBB1FA617B70710F0A61BB70B881F62
S1132230991F5A95A9F780959095BC01CD010895F1
S1132240A1E21A2EAA1BBB1BFD010DC0AA1FBB1FB6
S1132250EE1FFF1FA217B307E407F50720F0A21B28
S1132260B30BE40BF50B661F771F881F991F1A9495
S113227069F760957095809590959B01AC01BD01BF
S1132280CF010895052E97FB1EF400940E94591166
S113229057FD07D00E94201107FC03D04EF40C9484
S11322A0591150954095309521953F4F4F4F5F4FB1
S11322B0089590958095709561957F4F8F4F9F4FAE
S11322C00895A29FB001B39FC001A39F700D811D0B
S11322D01124911DB29F700D811D1124911D08952B
S11322E00E946111A59F900DB49F900DA49F800D35
S11322F0911D11240895B7FF0C9470110E94701160
S1132300821B930B08952F923F924F925F926F928C
S11323107F928F929F92AF92BF92CF92DF92EF9271
S1132320FF920F931F93CF93DF93CDB7DEB7CA1BF2
S1132330DB0B0FB6F894DEBF0FBECDBF09942A881D
S1132340398848885F846E847D848C849B84AA84C5
S1132350B984C884DF80EE80FD800C811B81AA8152
S1132360B981CE0FD11D0FB6F894DEBF0FBECDBF1D
S1132370ED010895EE0FFF1F0590F491E02D0994EF
S1132380CF93DF938230910510F482E090E0E091E6
S1132390BC01F091BD0120E030E0C0E0D0E0309716
S11323A011F14081518148175907C0F04817590766
S11323B061F482819381209719F09B838A832BC0D7
S11323C09093BD018093BC0126C02115310519F0FD
S11323D04217530718F49A01BE01DF01EF0102808E
S11323E0F381E02DDCCF2115310509F1281B390BD0
S11323F02430310590F412968D919C9113976115B8
S1132400710521F0FB019383828304C09093BD0185
S11324108093BC01FD01329644C0FD01E20FF31F1D
S113242081939193225031092D933C933AC020918A
S1132430BA013091BB01232B41F42091100130915A
S113244011013093BB012093BA0120910E01309108
S11324500F012115310541F42DB73EB7409112010A
S113246050911301241B350BE091BA01F091BB018B
S1132470E217F307A0F42E1B3F0B2817390778F057
S1132480AC014E5F5F4F2417350748F04E0F5F1FB6
S11324905093BB014093BA018193919302C0E0E051
S11324A0F0E0CF01DF91CF9108950F931F93CF9365
S11324B0DF93009709F48CC0FC01329713821282D7
S11324C00091BC011091BD010115110581F4208119
S11324D03181820F931F2091BA013091BB012817DB
S11324E0390779F5F093BB01E093BA0171C0D801C3
S11324F040E050E0AE17BF0750F412962D913C9186
S11325001397AD012115310509F1D901F3CF9D01CF
S1132510DA013383228360817181860F971F8217CA
S1132520930769F4EC0128813981260F371F2E5F48
S11325303F4F318320838A819B8193838283452B00
S113254029F4F093BD01E093BC0142C01396FC93BF
S1132550EE931297ED01499159919E01240F351F75
S1132560E217F30771F480819181840F951F02961D
S113257011969C938E938281938113969C938E9350
S11325801297E0E0F0E0D80112968D919C91139798
S1132590009719F0F8018C01F6CF8D919C91980168
S11325A02E5F3F4F820F931F2091BA013091BB01E0
S11325B02817390769F4309729F41092BD01109255
S11325C0BC0102C0138212821093BB010093BA01B2
S11325D0DF91CF911F910F91089510E0C8E5D0E0ED
S11325E004C0FE010E94BA112196C935D107C9F76A
S10725F0F894FFCF89
S11325F488130F00F4010400D0070401080200004A
S1132604BE012000200000010203040506FF9C0112
S1132614B501CF01EA0107022602470269028E02CC
S1132624B502DE020A030E0F1011126D5600507229
S10D2634657373204200476F210014
S9030000FC
